:020000040000fa
:080000000002040000000000f2
:020000040000fa
:100400000ff12000807f2400000188000000000020
:10041000050007000c000700da1b020000000000c6
:100420000040da000000fe004440a9000000200067
:100430000000e0000300320000002000a00188005e
:100440004440a80000000600c00e23000100200068
:100450001600370062004000e080480091018800eb
:100460009001ba0062004000e080480091018800dd
:100470009002ba0062004000e08048000002eb00f9
:100480006028e10005003a008301e900070033001d
:10049000038009000059eb00040037006128e100e7
:1004a000010032000082eb00050007009101880086
:1004b0001001ba000200e000e6ff3a00000005006b
:1004c000910188008002780062004000e0804800ce
:1004d0003559ba008301e900080032002559ba00f5
:1004e0008301e900050032000400e000f4ff32005f
:1004f00015d9ba008301e900f1ff3a0000000600b7
:10050000f4ff2f00c501370014002000c30137009d
:10051000889fbe008a9fbe00010578000100e000b0
:100520000400350008003c000000e000200032001c
:100530000500370060001000e080180002003b005a
:1005400001f02c001a0037000004be006011b80052
:100550006b0920000982cf00020039000882cf0019
:100560000441b000694252000e00320008003b0016
:1005700082817100610164008904d1000884d30084
:100580008b05e8000442e800f9ff3a000500370057
:100590000804440089844c008b05e9000442e9000a
:1005a000fbff3a00b80107000af0a70001f0a00025
:1005b0004f05be004f04be00000006000001be0053
:1005c000d70107000470a70003f0a1006509b1007e
:1005d000160032000d0035006828e10006003500e5
:1005e000f0ff2f00f1ff27000300e00013003b00a5
:1005f0000100280000000500000040008180480044
:100600008502e900fcff3a0008003700f88f42003d
:1006100002003c008000eb00000005008100d100da
:100620000080d3008502e800fcff3a000300e000f0
:1006300002003b0060001000e0801800000006008f
:10064000889fbe008a9fbe008c1f7800c9010700ea
:10065000d001330003866c006450e10024003200b6
:100660006420e100270032006150e10022003200e6
:100670006120e100210032008b854200eb07b100d0
:100680000134b800003ab8000804420089844a00e6
:10069000013ab8000030b8008880400009014a00e3
:1006a000040033000000400081804800020149003e
:1006b0008b05e900c909dd008301700001003200eb
:1006c00013002000c814de004814dd004709de00d6
:1006d0001200b200c808de00088470006a0107003a
:1006e00001f0a1000cf0a70001f0a000b20137005a
:1006f0006120e100b40132000801be000200be002a
:10070000f7ff37006150e100fcff3a00ae0137000f
:1007100014002000af01370003f0a200889fbe0044
:100720008a9fbe008c1f7800920107009901330058
:100730006450e1004f0032006420e10052003200ba
:1007400003826c0007003b000905d0000306d000bf
:10075000820f54000c065d000200390002003200d6
:1007600089017800030678008582550004003d0069
:100770000003fd008103fd008502ea008b85420035
:10078000840f720002003b0060001000e08018003f
:100790006011b8000005eb007a28e1000a0039007a
:1007a00006007800c75ddd00f707b200878075009e
:1007b0002d003700828171000a0178006105600018
:1007c0008180d1000080d3008502e900f9ff3b0061
:1007d000060440008784480002003b0060041400c7
:1007e000e0841c000988a300070032008a817100a0
:1007f00082817100610164008904d1000884d30002
:100800008b05e800170037000978a30013003a00b1
:100810000b00e000130034008b05e90008044400dd
:1008200089844c000a4474000978a3000d003a0042
:100830000b00e000070034008b05e90008044400c9
:1008400089844c0001003a000b0020000978a300c5
:10085000f7ff32000001eb000200370082817100d7
:100860000a017800080107000cf0a70001f0a000c1
:10087000510137006420e10002003a00838f6c00d0
:10088000510133000801be000200be004a013700da
:10089000889fbe008a9fbe008c1f7800350107002c
:1008a0003c01330003866c006450e1002e003200ee
:1008b0006420e100330032006150e1002f0032007b
:1008c0006120e1003100320085855500eb07b00062
:1008d0000900200008042000050037000804440037
:1008e00089844c000a0031000603430087834b00d3
:1008f0000001530081815b00f8ff33000203be005a
:100900000800a0000804440089844c00f6ff390068
:10091000c639dd008301730001003200130020009e
:100920008904d1000884d3000998a300050032008f
:100930000800a7000300a0008904d1000884d300a8
:100940008b05e8008904d1000884d3000001eb0086
:100950000281d200cc00070001f0a1000cf0a7003a
:1009600001f0a000140137006420e10016013200fc
:100970000801be000200be00f7ff37006120e10061
:10098000110132006000b800f3ff370000002000c2
:1009900001f82700f0ff37000800fa00889fbe002a
:1009a0008a9fbe008c9fbe000004be000205be00f0
:1009b000b50107006420e100d9013e008a00320041
:1009c0006708240026e42200a5ef2f00f49e2300f0
:1009d000d80107007a003c000800be000a01be00f2
:1009e00077082c0056382400d5462400341c2700f4
:1009f000d5010700780035000800be000a01be00de
:100a000003f0a10007c92300060020000500200014
:100a100004002000cc010700710035000800be0072
:100a20000a01be0077ff230076542100b55226004c
:100a3000e42f2800c901070007fe2300060020005c
:100a40006022b80003f0a70007f0a00038020700fa
:100a5000b40207000006be00de02070003f0a20099
:100a6000009fbe000297be0067fe23000600230021
:100a70006022b800b90107000802be000a03be00e8
:100a80002b020700809fbe00829fbe003e00be007a
:100a90002e01be00b7f22b0006012d0015c6250061
:100aa00084ca2000ad0107004f03be004f02be0004
:100ab0001f020700809fbe00829fbe000002be0092
:100ac0000203be00a5010700009fbe000297be0002
:100ad00017ef2300462a250085f52600c4c12d0006
:100ae0009e010700c7f72300460e270035fb2600ae
:100af000046e2f000e0207003e02be002e03be0051
:100b00009601070007fd23000600200005002000d5
:100b100004002000060207004f03be004f02be0083
:100b20008e010700809fbe00829fbe003e00be0077
:100b30002e01be0007f4230096f92300e5fd2600f0
:100b40009480230085010700c7fa2300e6182700d8
:100b500025142700341b2500f50107003e02be00c6
:100b60002e03be007d01070007fe230006002000c3
:100b70000500200004002000ed010700ffbb9700e6
:100b80006fbb9700dfba97004fba97009402070037
:100b90000002be000203be004f01be004f00be00b7
:100ba0009102070007fe2300060020006022b80023
:100bb000df01070061024600e50207005801370027
:100bc00003ff270022022000627888000001eb006a
:100bd0006000b800520137008001eb00f9ff3700d8
:100be00003ff2300f9ff370003f8a3004c01320094
:100bf0008001eb00f5ff37000002eb000703070060
:100c00000500320007ff2300060020006022b80024
:100c100003f0a600c601070000000600889fbe0082
:100c20008a9fbe00841f7800520007004f007800a2
:100c300011003300f0ff2f00838f6c0006003b0093
:100c4000040565000a00a7000800370009f0a600a7
:100c50001000200008003700820f5400838f5c00d2
:100c6000030039001000200001003e0000002000b9
:100c700009f0a7000000ea004f05be004f04be00c7
:100c80000000e000000006008100200061805500a7
:100c90000b003d000b00200061fe2f000100e10071
:100ca0001d00340082817100610164008904d1005b
:100cb0000884d3000000e800faff3a007100200029
:100cc000610064000300700002006000090032004f
:100cd00061044400e0844c000988a500050032004e
:100ce0008b05e8006808e10002003a008904d100a1
:100cf0000884d300f20f20000258e10005003d00f7
:100d0000c75ddd00f907b200898075000800780032
:100d1000000006000bf827008b007800000005009b
:100d2000c70ade00f107b200f50fb200080032007a
:100d3000e1cf4200020032000170a0002400050053
:100d4000810f700001003200040805004400050016
:100d5000810f700002003a00140005008502e900ce
:100d60000000400081c04800fcff3b000170a00073
:100d7000240005000004be00e9ff07000003be00d8
:100d80000405be000200be00e5ff0700844f7500a9
:100d9000000006000200be006450e10005003600bd
:100da0006420e100020036000968a30001003a0057
:100db0000800be000160a0004f0678004f05be008d
:100dc0004f04be0000000600f0ff2f00f1ff2700d7
:100dd000f9ff37000800fa00889fbe008a9fbe0016
:100de0008c9fbe00040678000004be000205be0011
:100df000a50007006420e1009f003e009b00320038
:100e00006120e1009600320003f0a100171b2400ce
:100e100036582c0005a0210004002000ca0007005d
:100e20000800be000a01be0007003500970124003b
:100e3000b61f22004544250084d12200bb020700d2
:100e40000004be000205be008006eb000c00a700f7
:100e5000cf1ede0003f0a1000bf0a10047fd230030
:100e600006f3250095dc260034882c00bb00070023
:100e70006022b8000003eb0007fe23000c00a60070
:100e800007ff23002a010700a60107000000a700b2
:100e90000d00a200cf0107000c00e00004003a00a2
:100ea00007fe2300060020006022b800cc010700e6
:100eb00003f0a200009fbe000297be00970024002e
:100ec000060022006022b800a40007000802be004d
:100ed0000a03be0016010700809fbe00829fbe006d
:100ee0003e00be002e01be00f7f4230046542b0046
:100ef000152d2400a4462800980007004f03be00cb
:100f00004f02be000a0107000004be000205be0039
:100f100003f0a10067e42300e6092a00f567260034
:100f2000d4bc2300880007000800be000a01be00f0
:100f3000480035000002be000203be008700070023
:100f4000009fbe000297be0087ce2300f60f280048
:100f50003599260054f92d0080000700a7d62b00f4
:100f600006422e0085c02d00c4992400f000070021
:100f70003e02be002e03be007800070067de23009d
:100f8000c6232100a586260004432d00e8000700a3
:100f90003e02be002e03be0070000700a7e52b0036
:100fa00056642e00d5b52400b40a2c00e0000700da
:100fb0003e02be002e03be006800070077ec23004f
:100fc00036de210045522a0034062f00d8000700e3
:100fd0003e02be002e03be0060000700a7f22b00f9
:100fe000061a200015a02100a4e12300d00007006c
:100ff0003e02be002e03be005800070017f8230073
:101000001611210015112100040b2100c800070052
:101010003e02be002e03be005000070057fc2b000e
:10102000565525005555250054552500c00007008c
:101030003e02be002e03be00480007000802be00ac
:101040000a03be00450007000802be000a03be00f6
:10105000b70007000d00a70003f0a2003000370022
:101060000c00a60003ff23002d003700f3ff27002c
:10107000f2ff2f006110b9000330a000140220001d
:10108000647888002600370005ff2700058261008c
:10109000070032000428e1000100320024000500ae
:1010a0000600070001003a0044000500040805009e
:1010b00002000700f9ff3a00140005006f8261008a
:1010c0008102700085027100850272000000060036
:1010d000680447000294be000094be00fc04470070
:1010e0008694be008494be000900780013020700b5
:1010f000080078001102070099007800814f700005
:101100000b003b000800be00330207004f00b10097
:1011100003003700f3ff2700f2ff2f006110b90032
:101120004f06be004f05be004f04be000080fa000f
:1011300000000600809feb00350207008f87e90062
:101140000000e000000006008f1fd1003002070001
:101150008f87e9000000e000000006002800fa0088
:10116000889fbe008a9fbe008c9fbe0003866b00d6
:10117000d7ff07000028a30064003a000128a3005d
:1011800067003a000008a30062003a000108a300cb
:1011900065003a001e009000be08900081064000e5
:1011a000ed3fb100f4805700ee019000111ab80035
:1011b0008e099000311bb8009e099000311cb800c8
:1011c000511db800f485570046000700fe0190004d
:1011d0003a0007008b85e8003e0007008e0990006a
:1011e00040000700ee019000340007008b85e80006
:1011f000380007008e099000400007009e0990000b
:101200001b18b800890440000a854800fe019000c0
:10121000340007008b85e80038000700ee019000dd
:10122000300007008e0990001b18b80089044000a8
:101230000a8548000a98a30008003a000402420008
:1012400085824a0006034b0087834b0008044c004c
:1012500089844c000a054d008d06e90084827200e5
:10126000850273004c3add008502720001003200f5
:1012700015002000443ade001400b2004538de00bc
:10128000cb45dd000b007000c540de00cb4ddd001e
:101290008b8070004549de00cb55dd000b017100ed
:1012a000c551de000d0378000202070003f0a10023
:1012b0000cf0a70003f0a00099ff37001b18b8003e
:1012c0008502400006834800e0834b0060044c0028
:1012d000070037001b18b80006034000878348004a
:1012e000faff37001b18b800870340000884480045
:1012f000e0844c0060054d00000006001b18b8009b
:101300000804400089844800faff37000108a30060
:1013100080ff3a005800be005801be00e3ff3700ce
:101320000008a3007bff3a0009047800f9ff3700aa
:101330002800fa00889fbe008a9fbe008c9fbe00d6
:1013400007067800878669000c003b0003047800dc
:101350008704780008f0a10009f0a100840f500074
:10136000858f5800860f5900890f5c0003003300f9
:101370000cf0a20001003a000cf0a10054ff07009d
:101380006400e1005f003200780147006408e1007a
:10139000610032006c014700748557003200be00c6
:1013a0001201be003a04be001a05be001e039000e2
:1013b000be0a90008503530006003d000004fd00b6
:1013c0008104fd000205fd008305fd008703ea009e
:1013d000050378000df8a300040032006004140037
:1013e000e0841c0060051d00e0851d006022b8003f
:1013f0007d0320000d38e1008006eb000b00390072
:101400004433dd00f300b20083017300390037007c
:10141000848272000d027800e10664008b85d100a1
:101420000a85d3008984d3000884d3008703e900a8
:10143000f7ff3b0008004000898048000a0149008e
:101440008b81490004003b0060001000e080180020
:1014500060011900e08119000358a300090032005f
:101460008d82720084827200610260008301d1006b
:101470000281d3008180d3000080d3000603e800fe
:101480001b0037000348a30017003a000600e000e5
:10149000170034000603e9000d00a3000000480017
:1014a0008180480002014900838149000348a3006c
:1014b0000f003a000600e000090034000603e900ce
:1014c00000004000818048000201490083814900fa
:1014d00001003a000003eb000348a300f5ff3200cf
:1014e0006022b800020037008482720061826600c8
:1014f0007001070003f0a1000cf0a70003f0a000aa
:1015000007ff3700640147006408e10002003a0069
:101510000df8a300fffe3a003200be001201be002b
:10152000fffe37001400fa00889fbe008a9fbe00ad
:101530008c9fbe000004be000205be00680047008c
:101540000a90be000890be00fc0007000070a700d3
:101550000bf0a100304320009e02900080825200d8
:10156000b0fe2f000028e10011003d00b0fc2f006c
:101570000028e100150034001e0990008e0890003c
:101580007e0090000501b0000201d1008180d300ef
:101590000080d3008502e800fbff3a000b00e0006a
:1015a000dffe3b0060001000e0801800dcfe37002a
:1015b000f0ff2f00f1ff27000b00e000d8fe3b00fa
:1015c0000100280000002000d5fe37006000b800b0
:1015d000d3fe37004f89de008201780061013700b9
:1015e00007f0a20052ff37002800fa00889fbe00d3
:1015f0008a9fbe008c9fbe0003866b00b4fe07006e
:101600006400e100440032006408e1004a00320056
:101610006100e100460032006108e100490032004b
:10162000ec0647006000b8003d02be003d03be006e
:10163000f48657006011b8003d04be003d05be00b1
:101640007d0320000b0037000000a0008d06e9009c
:10165000130032000402420085824a0006034b0058
:1016600087834b0000004000818048000201490050
:10167000838149000802520089825a000a035b00f4
:101680008b835b00f0ff3b000802420089824a0026
:101690000a034b008b834b008d06e900edff3a00f7
:1016a0008482720086827200f707b200878272001d
:1016b00001003200150020001e0490003e0b900037
:1016c00006035400e63fb0000368a30007003200a1
:1016d0000000a7000500a0008301d1000281d30013
:1016e0008180d3000080d3000603e8008301d1008d
:1016f0000281d3008180d3000080d3000002eb0080
:101700000482d200eb00070003f0a1000cf0a70058
:1017100003f0a00082fe3700640247006408e10085
:101720007cfe32003400be003401be00f6ff3700fc
:101730006108e10077fe32006011b8006000b80077
:10174000f1ff370003ff270002002000fbff3700f6
:101750001400fa00889fbe008a9fbe008c9fbe00c6
:10176000040678000004be000205be0068004700c1
:101770000a90be000890be00700007006200e10001
:101780000800be000a01be0023003a006e0090006f
:10179000fe0090000e0990009e0990009e029000ad
:1017a00085024600e47f20000428e10005003c009b
:1017b000d4fc2f000428e10008003d0005002000b3
:1017c00001003700f57f20002002200060788800ab
:1017d0006000b8006011b8000a0037001400200053
:1017e0000482520007003d008301d1000281d30032
:1017f0008180d3000080d3000402e800faff3a00a1
:1018000005002000c42add00f300b20085817100cc
:101810000bf0a70003f0a00041fe37001400fa000f
:10182000889fbe008a9fbe008c9fbe000406780081
:10183000e80247008292be008092be000500780058
:101840003e0007006200e10033003a006000b8008b
:101850006011b8001e0390000c035300f63fb10066
:10186000220035004b0320000b30e1002a003d0030
:10187000fb012000faff2f006154b9006c01470002
:101880008b05d1000a85d3008984d3000884d30056
:101890000603e900faff3b003200be001201be0061
:1018a0000002640081826400020365008383650096
:1018b0000502720006027200070272001600320072
:1018c0000884ea008984ea000a85ea008b85ea0038
:1018d000000064008180640002016500838165006e
:1018e0006022b8001e03900072000700de03900023
:1018f00007f0a70003f0a0000082eb000400e00066
:101900008e0290004f06be004f05be004f04be0081
:101910000080fa0000000600640147000400200077
:101920003200be001201be00f4ff3700801feb0042
:10193000c30007008f87e9000000060080007800e0
:101940005002be005003be004439de00f700b20072
:10195000f37f200003016100090032000218e1005a
:1019600016003a00850172008301730083817300c1
:101970000008200015003a00400020001300370046
:1019800085017200830173008381730005003a00b2
:1019900004a8be0006a8be00100020000b003700ff
:1019a0000201e9000402420085824a0006034b005e
:1019b00087834b000748a300f9ff32000740a000cf
:1019c00004a8be0006a8be002000200080009800e9
:1019d0009200980000000600e48240001078a30006
:1019e00007003200640240001178a3003400be00fa
:1019f0001401be00040032000330a70000000600fe
:101a00003500be001501be000330a0000000060036
:101a1000889fbe008a9fbe008c9fbe000404be004b
:101a20000605be00809fbe00829fbe0096fd070097
:101a3000040678000800be000a01be0092fd0700ff
:101a4000840678004f03be004f02be008d4f760023
:101a50007fb0970013003300f0ff2f008b8f6b00d7
:101a600006003b000d0666000c00a7000a003700c8
:101a700007f0a600100020000a003700880f52006f
:101a8000898f5a008a0f5b008b8f5b00030039003f
:101a90001000200001003e000000200007f0a70019
:101aa0000000ea004f06be004f05be004f04be0016
:101ab0000000060018002000570020000804530012
:101ac0000d003d000600200097fc2f000740e100bc
:101ad0001e00340084827200610260008301d10024
:101ae0000281d3008180d3000080d3000804e80085
:101af000f8ff3a004700200061046000050474000c
:101b0000040464000d00320061004000e0804800e1
:101b100060014900e081490003b8a50007003200d8
:101b20000603e8006538e10004003a008301d100b3
:101b30000281d3008180d3000080d300f87f200091
:101b40000830e10003003500080378006000b800a9
:101b50006011b8004433dd00f300b200830173006c
:101b600000000600889fbe00830478000300e000a8
:101b70002c00350003003c0000827000040271005c
:101b80002600320036432000c50020008383cf00aa
:101b90000a0039000541b1008283cf0007003900f7
:101ba0000541b1008183cf00040039000541b10037
:101bb0008083cf00010039000541b10085c3530087
:101bc0006022b800120032000a003b0084827200da
:101bd000610260008301d1000281d3008180d300c3
:101be0000080d3000603e8008743e800f7ff3a00cf
:101bf00007003700000040008180480002014900d2
:101c0000838149000603e9008743e900f9ff3a00b0
:101c1000a8ff070009f0a70003f0a0004f04be00d2
:101c20000000060060001000e0801800600119004c
:101c3000e0811900d3ff3b00033e2c00f7ff370083
:101c40002800fa00889fbe008a9fbe008c9fbe00bd
:101c50000efe97001efd07006108e1005c003200e7
:101c60006200e1005a003e00540039006408e100bf
:101c7000520032006c014700748557003200be00ec
:101c80001201be003a04be001a05be009e0290007a
:101c9000be0e90000d82520017003b000402e800c7
:101ca00046003a00880f5000898f58008a0f59006b
:101cb0008b8f5900410034006401470078034700ce
:101cc0003200be001201be003602be001603be0086
:101cd00007f0a10003f0a60007f0a0000c70a70019
:101ce00093fd07000efd3700000040008180480092
:101cf00002014900838149000c00a0000800500047
:101d0000898058000a0159008b81590005003b0069
:101d100008004000898048000a0149008b81490081
:101d20000c00a1000402e900efff3b0000024000ac
:101d30008182480002034900838349001b0032006e
:101d40000802520089825a000a035b008b835b0001
:101d50004200f80005003700000040008180480084
:101d600002014900838149008d06e9000340a60075
:101d7000f9ff37006022b8000d0378004dff07001f
:101d8000780347004200f9000800350002003c00db
:101d90000c08a300050032003602be001603be0088
:101da00007f0a0000c70a70061fd07005e02900024
:101db00004f0a70003f0a200d9fc37002e00900029
:101dc000be0090004e019000de019000d4fc370070
:101dd000100220000c70a60060788800cdfc37004f
:101de0000600fa0010079800210798006011b8005b
:101df0001e009000ae009000c1f907000000e00056
:101e000001003c000300370010002000000f7800a4
:101e10000c0037006011b8001e009000ae0090006a
:101e2000b9f907000000e0000100320003003700ac
:101e30000000eb00000f7800020037000080eb008c
:101e4000000f78001e0078000080fa0000000600f5
:101e50000c00fa00300798000000eb002007980003
:101e60000000eb00100798001a0037001e009000d9
:101e700000004000800078003e009000008040009c
:101e800010007800cf80de00a1f9070001f0a1006a
:101e9000caf90700000f78001e007800500798006c
:101ea000ae009000410798004e009000de009000c8
:101eb000810f500002003d005e0090004007980036
:101ec000ce009000210798001e0090000000e8005e
:101ed000100798009e009000f0072000808f5000af
:101ee000e2ff34002e0090000080fa00000006009f
:101ef0000c00fa00300798000000eb002007980063
:101f00000000eb0010079800180037001e0090003a
:101f10004200dd00800078003e009000008040001c
:101f20001000be0001f0a100a4f90700000f780026
:101f30001e00780050079800ae00900041079800fe
:101f40004e009000de009000810f500002003d0026
:101f50005e00900040079800ce0090002107980096
:101f60001e0090000000e800100798009e009000fe
:101f7000f0072000808f5000e4ff34002e00900016
:101f80000080fa00000006000c04fa00889fbe00e2
:101f90008a1f7800a1402000810047008008780057
:101fa0001000200040079800d0cc2c00c1f4230082
:101fb000200798003107980080382100000f780032
:101fc0000000eb0010079800200037001e0590006d
:101fd0001e009000cf80de004df9070092ff200028
:101fe000930c240096f907000004be004e009000f8
:101ff0001e017800110009000200d800cf80de0029
:1020000043f907000001be000800be008cf907007c
:10201000bff907002e019000be01900088f907006b
:102020000200200003f82300bcf907000001be00f5
:10203000ea0047004250dd00010040000288be0077
:102040001e0090000000e800100798009e0090001d
:10205000f0072000808f5000dcff34000000eb0010
:10206000100798001b0037001e0590001e0090000e
:10207000ea0047004200dd00010040001004be00fd
:102080001e0090000000400080007800a04020006a
:10209000000047001080400010007800cf80de0074
:1020a0001bf907000001be000800be0064f907002c
:1020b0000001be00a12020008e8040004250dd00c3
:1020c000010040000288be001e0090000000e800f1
:1020d000100798009e009000f0072000808f5000ad
:1020e000e1ff34000000eb001007980011003700fa
:1020f0001e0090000000400080007800a0402000fa
:1021000000004700108440001e009000a120200025
:102110008e8040004200dd00010040001000be0043
:1021200026f90700000c78001e0090000000e8006f
:10213000100798009e009000f0072000808f50004c
:10214000ebff34004f0578004f04be000080fa001a
:10215000000006001606fa00889fbe008a9fbe0097
:102160008c9fbe00416120008100470080087800fc
:1021700060002000100f98000000200001f82300ec
:1021800070079800010f9800406120000000470090
:10219000100078002eff0700cf80de00dcf807007b
:1021a00040079800510798000000eb006007980076
:1021b000410037006e0490006e0090000000400067
:1021c000800078004061200000004700108040003f
:1021d000900078001e0890000088b900cf80de00d3
:1021e000cbf807004e019000de019000a8f907002f
:1021f0000001be00f40047004240dd000100400045
:102200000288be006e0490006e009000f40047004b
:102210004200dd00010040001000be0001f0a200fd
:10222000effe0700cf80de00b9f807000005be0012
:102230006e009000f40047004200dd000100400005
:102240001000be0001f0a200e5fe0700cf80de0016
:10225000aff807000002be006e009000f4004700d7
:102260004200dd00010040001001be000400be007d
:10227000f3f80700c8f907000001be0000002000c5
:1022800001f8230024f907000001be000a00be0087
:10229000ebf807000001be00412120008e804000c5
:1022a0004240dd00010040000288be006e00900048
:1022b0000000e80060079800ee009000f0072000a2
:1022c000808f5000bbff3400402120000e004000f2
:1022d00007ff0700cf80de008df807002007980079
:1022e000310798000000eb00600798002f003700ce
:1022f0006e0590006e009000412120008e8040000d
:102300004200dd00010040001000be007e01900090
:102310008e099000caf807004e019000de0190007f
:10232000c7f807002e019000be01900058f9070081
:102330000006be007e0190008e0990000000200083
:1023400001f82300f4f807000004be006e009000be
:10235000000040008000780040612000000047003d
:102360001080400010007800cf80de0068f8070081
:102370000001be000800be00b1f807000001be0069
:102380000c00be00e5f807000001be00404120003f
:10239000800047004250dd00010040000288be007e
:1023a0006e0090000000e80060079800ee009000ca
:1023b000f0072000808f5000cdff34004041200006
:1023c00000004700cafe0700cf80de0050f807007b
:1023d000008fbe000000eb00600798001600370079
:1023e0006e009000000040008000780040612000f6
:1023f00000004700108440006e0190004041200022
:10240000800047004210dd00010040001000be00c7
:102410004e019000de01900089f807001e01be0009
:102420001bf9070065f80700000c78006e009000ab
:102430000000e80060079800ee009000f007200020
:10244000808f5000e6ff34004f06be004f05be00ef
:102450004f04be000080fa00000006001600fa00db
:10246000881f780070079800010f9800120f9800dd
:10247000230f9800f026210031a023004007980088
:10248000510798000000200001f023002007980069
:10249000310798000000200001f02b00008fbe00e3
:1024a0000000eb00600798003e0037006e009000cf
:1024b00000004000800078002e089000008440005a
:1024c0006e00900000004000800078002e08900010
:1024d0000080400010007800cf80de000cf807007c
:1024e0007e0190008e09900055f8070033f8070030
:1024f000000c78001e08900010007800e10f5000da
:1025000008003a004e019000de0190007e0090002d
:102510008e08900081f8070070079800010f98005e
:10252000070037004e019000de0190007e00900011
:102530008e08900078f8070070079800010f980047
:102540002e019000be0190007e0090008e08900049
:10255000ebf707000000e00001003d000400370039
:102560009e0890000000eb00800878000a00370009
:102570001e01be007e0090008e089000e2f707006a
:102580000000e00001003400030037009e089000c6
:1025900010002000800878006e0090000000e80025
:1025a00060079800ee009000f0072000808f500038
:1025b000beff34007e0090008e0890004f0478002b
:1025c0000080fa00000006003606fa00889fbe0070
:1025d0008a1f78006862200008044700008cbe0053
:1025e000a06220000000470002087800c0622000be
:1025f0000000470003087800e06220000000470068
:1026000004087800006320000000470005087800f7
:102610002063200000004700060878004063200087
:10262000000047000708780000002000a14f2400a8
:10263000101798002117980000002000a1572400cf
:10264000700f98000117980000002400c159240061
:10265000500f9800610f980000402400c1722400c0
:10266000300f9800410f98003e099000ce0990006d
:102670005e089000ee08900085f80700100f9800a3
:10268000210f9800d0cc2c00c1d4230070079800f3
:10269000010f9800606220000000470092ff2000b8
:1026a000930424001000be00e5f707003e099000e7
:1026b000ce09900076f8070015f807000001be006b
:1026c00016f8070050079800610798007e009000f8
:1026d0008e0890000001be0010f807002007980047
:1026e0003107980040632000000047001000780088
:1026f00010007800e10f500022003a00c062200074
:10270000000047001000780010007800cf80de0045
:102710007ff70700620220000e0141000089be0021
:10272000600220000e0040001000be005e0190001c
:10273000ee019000c2f70700622220000e01410066
:102740000089be00602220000e0040001000be0084
:102750005e019000ee019000b9f707000001be0095
:1027600060422000000047000288be004063200055
:1027700000004700900078000000eb00800878001f
:102780003c003700c06220000000470010007800c5
:1027900010007800cf80de005df707000002be0069
:1027a0002063200000004700100078001001be00e8
:1027b0000400be00d8f707000004be00e06220005d
:1027c00000004700100078001000be002e019000ad
:1027d000be0190009af707000001be000800be008d
:1027e000cdf70700620220000e0141000089be0003
:1027f000600220000e0040001000be005e0190004c
:10280000ee0190008ef707000002be00e06220009b
:1028100000004700100078001001be000400be0058
:10282000bef70700622220000e0141000089be00b1
:10283000602220000e0040001000be005e019000eb
:10284000ee0190007ef707000002be00206320002a
:1028500000004700100078001001be000400be0018
:10286000aef707000001be006042200000004700f4
:102870000288be00a062200000004700100078001f
:1028800010007800e10f50000a003a00606220005a
:102890000004470060622000000047001e0990000d
:1028a000ae0990001000be009cf70700008cbe002f
:1028b00009003700606220000004470060622000c9
:1028c000000047001e099000ae0990001000be00f5
:1028d00091f70700008cbe006062200000004700f6
:1028e0007e0990008e1190001000be0004f70700d2
:1028f0000000e00001003d0006003700a06220005b
:1029000000004700900078000000eb00800878008d
:102910000e00370060622000000047001e1190008a
:10292000ae1190001000be00f7f607000000e000b6
:102930000100340005003700a062200000004700bd
:10294000900078001000200080087800100020001f
:1029500040079800a30037004e0590004e009000fd
:102960000000400080007800c062200000004700a6
:102970001080400010007800cf80de00e4f60700f1
:102980000002be004e0090000001e90060422000fd
:10299000800047004210dd00010040001001be0031
:1029a0000400be005cf707000004be004e0090006b
:1029b0000000e900612220008e8040004200dd001e
:1029c000010040001000be002e019000be019000ea
:1029d0001bf707000001be000800be004ef707000d
:1029e0000001be00610220008e8040004250dd00e8
:1029f000010040000288be004e0490004e0090008e
:102a0000610220008e8040004200dd000100400095
:102a10001000be005e019000ee01900008f7070074
:102a20000002be004e0090000000e900612220007c
:102a30008e8040004200dd00010040001001be0019
:102a40000400be0035f707000001be00612220002f
:102a50008e8040004240dd00010040000288be0040
:102a60004e0490004e009000612220008e804000b5
:102a70004200dd00010040001000be005e01900039
:102a8000ee019000eef607000002be004e0090003e
:102a90000001e90060422000800047004210dd0094
:102aa000010040001001be000400be001bf707003b
:102ab0000001be0060422000800047004240dd006f
:102ac000010040000288be00606220000000470054
:102ad00092ff2000930424001000be00d8f60700e7
:102ae0003e099000ce09900069f7070008f707003b
:102af0000001be0009f70700500798006107980021
:102b0000a06220000000470010007800100078004c
:102b1000e10f50000a003a00606220000004470004
:102b200060622000000047001e099000ae0990007e
:102b30001000be00f9f60700008cbe000900370047
:102b4000606220000004470060622000000047002f
:102b50001e099000ae0990001000be00eef60700be
:102b6000008cbe0060622000000047007e099000db
:102b70008e1190001000be0061f607000000e0001a
:102b800001003d0006003700a06220000000470061
:102b9000900078000000eb00800878000e003700fd
:102ba00060622000000047001e119000ae119000ee
:102bb0001000be0054f607000000e00001003400e1
:102bc00005003700a0622000000047009000780058
:102bd00010002000800878004e0090000000e800ff
:102be00040079800ce009000f0072000808f500032
:102bf00059ff3400602220000e004000bcfc07009a
:102c0000cf80de0042f60700008fbe000000eb0020
:102c100040079800330037004e009000000040004d
:102c200080007800c062200000004700108440004f
:102c30004e009000612220008e8040004200dd00a6
:102c4000010040001000be005cf60700000c780098
:102c5000ce009000f0072000808f50001e003a0048
:102c60004e009000612220008e8040004200dd0076
:102c7000010040001001be00e0622000000047009b
:102c8000100078000288be004e0090006102200013
:102c90008e8040004200dd00010040001001be00b7
:102ca0000063200000004700100078000288be008a
:102cb0004e01900060422000800047004210dd007d
:102cc000010040001001be0020632000000047000a
:102cd000100078000288be004e0090000000e8005e
:102ce00040079800ce009000f0072000808f500031
:102cf000c9ff340060622000000047001000be00e1
:102d00004f0578004f04be000080fa000000060066
:102d10003e06fa00889fbe008a1f7800e862200005
:102d200008044700008cbe0020632000000047001c
:102d30000208780040632000000047000308780084
:102d400060632000000047000408780080632000d2
:102d50000000470005087800a0632000000047003d
:102d600006087800c06320000000470007087800cc
:102d700000002000a13f2400501798006117980020
:102d800000002000a14f2400301798004117980040
:102d900000002400c161240010179800211798003a
:102da00000002400c1692400700f980001179800ea
:102db00000002000a15f2400500f9800610f9800d0
:102dc00000402400c1722400300f9800410f980089
:102dd0003e099000ce0990005e089000ee08900039
:102de000abf60700100f9800210f9800a0702d007f
:102df00031d2230070079800010f9800e062200094
:102e00000000470092ff2000930424001000be0041
:102e10000bf607003e099000ce0990009cf60700d3
:102e20003bf607000001be003cf607005007980083
:102e3000610798007e0090008e0890000001be009f
:102e400036f607002007980031079800c06320007d
:102e5000000047001000780010007800e10f5000db
:102e600022003a0040632000000047001000780074
:102e700010007800cf80de00a5f50700e2022000f8
:102e80000e0141000089be00e00220000e0040005b
:102e90001000be005e019000ee019000e8f5070012
:102ea000e22220000e0141000089be00e022200045
:102eb0000e0040001000be005e019000ee01900088
:102ec000dff507000001be00e042200000004700df
:102ed0000288be00c0632000000047009000780018
:102ee0000000eb00800878003c00370040632000c1
:102ef000000047001000780010007800cf80de004e
:102f000083f507000002be00a06320000000470018
:102f1000100078001001be000400be00fef507009e
:102f20000004be006063200000004700100078002d
:102f30001000be002e019000be019000c0f50700f9
:102f40000001be000800be00f3f50700e202200009
:102f50000e0141000089be00e00220000e0040008a
:102f60001000be005e019000ee019000b4f5070075
:102f70000002be00606320000000470010007800df
:102f80001001be000400be00e4f50700e2222000ac
:102f90000e0141000089be00e02220000e0040002a
:102fa0001000be005e019000ee019000a4f5070045
:102fb0000002be00a063200000004700100078005f
:102fc0001001be000400be00d4f507000001be00e1
:102fd000e0422000000047000288be00206320007d
:102fe000000047001000780010007800e10f50004a
:102ff0000a003a00e062200000044700e06220007e
:10300000000047001e099000ae0990001000be00ad
:10301000c2f50700008cbe0009003700e062200006
:1030200000044700e0622000000047001e099000f5
:10303000ae0990001000be00b7f50700008cbe007e
:10304000e0622000000047003e119000ce11900089
:103050001000be002af507000000e00001003d005e
:103060000600370020632000000047009000780031
:103070000000eb00800878000e003700e0622000be
:10308000000047005e119000ee1190001000be009d
:103090001df507000000e0000100340005003700c6
:1030a00020632000000047009000780010002000fe
:1030b000800878001000200040079800bf0037000b
:1030c0004e0590004e009000000040008000780007
:1030d000406320000000470010804000100078008e
:1030e000cf80de000af507000002be004e0090000f
:1030f0000001e900e0422000800047004210dd00ae
:10310000010040001001be000400be0082f507006f
:103110000004be004e0090000000e900e122200003
:103120008e8040004200dd00010040001000be0023
:103130002e019000be01900041f507000001be0085
:103140000800be0074f507000001be00e102200087
:103150008e8040004250dd00010040000288be0029
:103160004e0490004e009000e10220008e8040004e
:103170004200dd00010040001000be005e01900032
:10318000ee0190002ef507000002be004e009000f8
:103190000000e900e12220008e8040004200dd00b6
:1031a000010040001001be000400be005bf50700f6
:1031b0000001be00e12220008e8040004240dd0080
:1031c000010040000288be004e0490004e009000b6
:1031d000e12220008e8040004200dd00010040001e
:1031e0001000be005e019000ee01900014f5070093
:1031f0000002be004e0090000001e900e042200005
:10320000800047004210dd00010040001001be00b8
:103210000400be0041f507000001be00e0422000ae
:10322000800047004240dd00010040000288be00ef
:10323000e06220000000470092ff20009304240079
:103240001000be00fef407003e099000ce09900079
:103250008ff507002ef507000001be002ff50700cf
:103260005007980061079800206320000000470085
:103270001000780010007800e10f500018003a00ac
:10328000e0622000000047003e119000ce11900047
:103290001000be009cf407000000e00001003200b6
:1032a00005003700e0622000000047001e1190007a
:1032b000ae1190000288be00e062200000044700ca
:1032c000e0622000000047001e099000ae09900057
:1032d0001000be0011f50700008cbe00170037007b
:1032e000e0622000000047001e119000ae11900027
:1032f0001000be0084f407000000e000010032006e
:1033000005003700e0622000000047003e119000f9
:10331000ce1190000288be00e06220000004470049
:10332000e0622000000047001e099000ae099000f6
:103330001000be00f8f40700008cbe00e062200020
:10334000000047007e0990008e1190001000be0022
:103350006bf407000000e00001003d0006003700ac
:103360002063200000004700900078000000eb0080
:10337000800878000e003700e0622000000047005f
:103380005e119000ee1190001000be005ef4070088
:103390000000e00001003400050037002063200039
:1033a000000047009000780010002000800878009e
:1033b0004e0090000000e80040079800ce0090000a
:1033c000f0072000808f50003dff3400e0222000f5
:1033d0000e004000c6fa0700cf80de004cf4070064
:1033e000008fbe000000eb0040079800330037005c
:1033f0004e009000000040008000780040632000f4
:1034000000004700108440004e009000e1222000a0
:103410008e8040004200dd00010040001000be0030
:1034200066f40700000c7800ce009000f007200042
:10343000808f50001e003a004e009000e1222000d4
:103440008e8040004200dd00010040001001be00ff
:103450006063200000004700100078000288be0072
:103460004e009000e10220008e8040004200dd000e
:10347000010040001001be008063200000004700f2
:10348000100078000288be004e019000e04220004b
:10349000800047004210dd00010040001001be0026
:1034a000a063200000004700100078000288be00e2
:1034b0004e0090000000e80040079800ce00900009
:1034c000f0072000808f5000c9ff3400e062200028
:1034d000000047001000be004f0578004f04be00fa
:1034e0000080fa00000006001e03fa00889fbe005c
:1034f0008a1f7800200f9b00310f9b00420f9b001a
:10350000530f9b0010002000100f9800f0072000c0
:10351000000f980000f4210070079800303323005a
:1035200031f3230050079800610798004e0893007c
:1035300010007800e10f50001a003a000000eb0084
:10354000100798000f0037001e0090000000400098
:10355000800078003e089300008140001e0090002b
:1035600000004000800078002e089300008040009a
:1035700010007800000978001e0090000000e800ac
:10358000100798009e009000f0072000808f5000e8
:10359000edff3400ce0893000000eb0080087800b7
:1035a0007f0037000000eb00000f78000000eb0008
:1035b000100798000f0037009e0190001e00900039
:1035c00000004000800078002e089300008040003a
:1035d00010017800412120008e80400003804100ce
:1035e00001004000020878001e0090000000e80082
:1035f000100798009e009000f0072000808f500078
:10360000edff34000000eb00000f78004e003700a3
:103610001e0578001e007800cf80de00bcf3070096
:1036200092ff2000930c240005f407000004be0064
:103630001e0890007e019000110009000200d800d1
:10364000cf80de00b2f307000001be000800be001c
:10365000fbf307002ef407000001be00f400470052
:103660004250dd00010040000288be001e007800cc
:10367000f40047004200dd00010040001000be00e1
:1036800001f0a10030079800410798000e08900053
:10369000cf80de009ef307003e019000ce01900037
:1036a000e7f3070054f50700c4f30700200798006c
:1036b0002e009000600f9b006e0893000000e00059
:1036c00003003d006e0893000000ea00600f9b00bd
:1036d0006e089300200798001e007800000040004c
:1036e000800078002e089300008440001e007800bf
:1036f00000004000800078002e0893000080400009
:10370000100178008e0890002e009000008050007c
:1037100000004000800078003e08930000804000d8
:103720001000780000004100cf80de0078f3070031
:103730005e019000ee019000c1f307009ff30700c7
:10374000000c78001e0fe800f00720009e0f10000c
:10375000afff34000000eb00000f78000d003700d1
:103760001e00780000004000800078002e089300c2
:10377000008140001e0078000000400080007800ba
:103780003e08930000804000100078000009780097
:103790001e0fe800f00720009e0f1000f0ff34001d
:1037a0005e0893004f0578004f04be000080fa00c9
:1037b000000006003601fa00881f78000000eb00c8
:1037c000700798000000200001f02b0050079800bf
:1037d0006107980010002000000f980000002000f2
:1037e000a13f2400300798004107980010002000f6
:1037f000100f980010002000001798000000200013
:10380000a13f240010079800210798001000200015
:103810001017980010002000001f980010002000d2
:10382000101f99000000eb00000f780090022000ac
:10383000303a880044c7bf00f043b20044e7b70005
:10384000417420009140780000ceb30000c06000b9
:1038500044e7b7000000eb00403a88001200200067
:1038600081072000a00920003374200081497800de
:10387000804978008249780012002000610420000d
:103880007005200023742000814978008049780069
:103890008249780043c7bf000047b200f04f500094
:1038a000fcff3a0042c7bf000042b2000004e00043
:1038b000fcff3200ac00070020788000018520006a
:1038c0007d01070020788000b50107002078800086
:1038d000270307000000370020788000300207002f
:1038e0000000e000fcff3a00207880000208200081
:1038f00001c52000e40107000208200001d52000d6
:1039000000c52000e50007000208200001dd2000be
:1039100000d5200005010700207880000f02070075
:103920000000e000fcff3a007e009000201f99009c
:10393000ae199100e38f51002f0032002e18910034
:10394000e30f50000a003c00ae199100e18f5100d6
:10395000180032002e189100e10f50001b003c00af
:10396000ae1991000300e0000e0032006300370042
:103970002e189100e50f500039003200ae19910069
:10398000e58f5100220035002e189100e60f5000ff
:103990004b003200ae199100e78f51005400320005
:1039a00056003700d1e2a800d1a2a800d1c2a800d9
:1039b00052003700d1e2a800d1a2a800d1c2a900cc
:1039c00000dd200070f907004c003700d1e2a800ac
:1039d000d1a2a900d1c2a8007001470003dd2000d8
:1039e0005e009000ee0090009cfa070050079800df
:1039f0006107980041003700d1e2a800d1a2a900d8
:103a0000d1c2a90000dd2000d2f907003b00370039
:103a1000d1e2a900d1a2a800d1c2a80007022000cb
:103a20008e8343007c004700f80047007401470084
:103a300072044700000378008102780002027800d7
:103a400003dd2000080178003e009000ce009000c9
:103a5000ddfa07003007980041079800270037007b
:103a6000d1e2a900d1a2a800d1c2a9000703200079
:103a70008e834300c00220000e004000810220001f
:103a80008e804000420220000e01410028022000ea
:103a90000e044400000378008102780002027800de
:103aa00003dd2000080178001e009000ae009000a9
:103ab00097fc070010079800210798000f003700b7
:103ac000d1e2a900d1a2a900d1c2a80022132000ee
:103ad0000e014100210320008e8040009e017800ed
:103ae00000dd200080fe0700000f78000300370093
:103af000d1e2a900d1a2a900d1c2a90020788000fa
:103b00000208200001dd2000b50107003900070090
:103b10000000e000030032007e0090000000e90099
:103b200070079800480007000000e0000300320022
:103b30007e0090000000e800700798007e00900072
:103b40000000e00002003d007000200070079800b7
:103b50007e009000e70f50005fff34000000eb0094
:103b6000700798005cff37000400fa00cda2a9009e
:103b7000cde2a900cdc2a900d1a2a800d1e2a8003f
:103b8000d1c2a800d302a800d322a800e402a90051
:103b9000e422a900e802a900e822a9000000eb0045
:103ba000007888000000eb00107888002ca3a800a3
:103bb000c6a2a900caa2a8006000b800008fbe007b
:103bc0000500370000000000100020000100200068
:103bd0001e0f40005e974800f07f2000010020008b
:103be000be0f1000ae8f1800f6ff34000080fa0000
:103bf000000006000200fa00d5c2bf00614060006c
:103c00000004e00009003a00007880000000e800ad
:103c10000078880000788000ec0f500007003a0020
:103c200010002000000f7800040037000000eb00b7
:103c3000007888000000eb00000f78001e0078007c
:103c40000080fa00000006000200fa00d5c2bf00a2
:103c5000624060000004e00009003a001078800033
:103c60000000e8001078880010788000ec0f500009
:103c700007003a0010002000000f78000400370011
:103c80000000eb00107888000000eb00000f7800c7
:103c90001e0078000080fa00000006008002780014
:103ca00001037800820378000700e0001e00340062
:103cb000350078000300280083006000c808de009b
:103cc00000f0a7000000ea00b3f727000300e100be
:103cd0000100390003007800430820000300400081
:103ce0000081cf000b0031009300200002815100c1
:103cf00001003b000001eb00e30141000302de0094
:103d0000f3002000030262004411dd000202720091
:103d1000010272000480ea00f00fb200005b78003c
:103d20008703e900e2ff3a00000006008002780005
:103d300001037800820378000700e00015003400da
:103d4000354078000080ea0003082000830060000e
:103d500003072000030160004411de000281e80037
:103d6000f300200003026000700272000402d00021
:103d70000402e8000222dd00430820000302520092
:103d80000170a7000402ea00041b78008703e90021
:103d9000ebff3a0000000600800278000103780083
:103da000820378000700e00023003400350078002b
:103db0000000e00002003a00500520001b00370020
:103dc0000300280083006000c808de0000f0a700a0
:103dd0000000ea00f3ff27000300e10001003900c2
:103de000030078000081cf00060031006910e10077
:103df00004003d009300200002815100e3014100d6
:103e0000020037000001eb00430020000302de0047
:103e1000f3002000030262004411dd000202720080
:103e200001027200530d200003406a00005b78001d
:103e30008703e900ddff3a000000060080027800f9
:103e400001037800820378000700e00019003400c5
:103e50000000eb0035407800530d200000c06900e1
:103e600003082000830060000307200003016000b6
:103e70004411de006f0260004422dd006800420051
:103e80000200e000020032000310200003004000a6
:103e90006110e100020034000201e9000200dd00cf
:103ea0000170a7000000ea00001b78008703e9000a
:103eb000e7ff3a00000006000600fa00100798002d
:103ec0002107980081e2a90007e2a90007a2a90042
:103ed0000762a9000742a9000722a8000702a9005b
:103ee0000011200020108800e442a800e462a8002d
:103ef0000070200000148800f000200010148800da
:103f00001000200040148800100020006014880079
:103f10001e009000307888001e009000ae009000d7
:103f2000010878002e0090000110200080804000e1
:103f30001e009000110098002e009000012020002b
:103f4000808040001e009000210098002e0090000c
:103f500001302000808040001e0090003100980059
:103f60000000eb00000f7800080037001e0078000a
:103f700000004000800078002e009000808040000b
:103f80000000eb00800878001e0fe800f01f200002
:103f90009e0f1000f5ff34000080fa0000000600bc
:103fa0000200fa00000f78009e0078000000eb008d
:103fb000900898001e00780010089000800078009b
:103fc0000100a0001e007800110898001e00780073
:103fd00010089000800078000110a0001e007800fa
:103fe000110898001e00780010007800800078000a
:103ff0001e007800710098001e00780020009000dc
:10400000800078001e007800010898009e0078006b
:104010000000eb00c00098009e007800f007200030
:10402000d00098009e007800f0072000e000980083
:104030001e0078000008900010007800c01488006e
:1040400007e2a8008b80a9009b80a800210c20001b
:104050009140780080cfb30000c060000024a00031
:10406000c2e0b70081e2a8000080fa00000006006c
:104070000200fa00000f780081e2a9009b80a900ed
:104080000080fa00000006000a00fa0020079800ed
:1040900031079800420798002e0090001008900009
:1040a0004200de000000a200610060000004e000a9
:1040b000040032002e00900090009000110798003c
:1040c000030037002e009000900078001107980040
:1040d000ce00900000082000808f500002003400c5
:1040e00000082000400798000000eb00000f780057
:1040f0000d0037001e0078000000400080007800ae
:104100003e009000008140001e007800000040004a
:10411000800078001e0090000080400010007800b1
:10412000000978001e0fe8004e0090009e0f10005e
:10413000f0ff35000400fc002e00900010089000f5
:10414000800078000100a0002e0090001108980067
:104150000000fc000080fa00000006000400fa00e5
:10416000000f78001e007800100890000000d100b9
:104170000000a200610060000004e00003003200c3
:104180000000eb001007980002003700100020002c
:10419000100798001e0090000080fa000000060042
:1041a0000400fa00000f78001e007800100890004c
:1041b0000000a200610060000004e0000300320083
:1041c0000000eb00100798000200370010002000ec
:1041d000100798001e0090000080fa000000060002
:1041e0000a00fa002007980031079800420798005b
:1041f0002e009000100890004200de000000a20097
:10420000610060000004e000040032002e00900015
:10421000b000900011079800030037002e009000b6
:10422000a000900011079800ce0090000008200028
:10423000808f5000020034000008200040079800e2
:104240002e009000ce009000610098000000eb006e
:10425000000f78000d0037001e00780000004000bd
:10426000800078001e009000008140001e00780051
:1042700000004000800078003e0090000080400078
:1042800010007800000978001e0fe8004e00900032
:104290009e0f1000f0ff35000400fc002e0090007f
:1042a00010089000800078000110a0002e009000ff
:1042b000110898000000fc000080fa0000000600d1
:1042c0000a00fa00100798002107980032079800aa
:1042d0003e00900010007800000f78001e40900013
:1042e00061406000104798002e00900000004000e0
:1042f000200798001e4090008080fb002e00900058
:1043000001007000200798000602a80006c2bf0046
:10431000614060000004e000fcff3a004003200020
:104320001010880009c2bf000044b2000004e00081
:10433000fcff3a0009c2bf0001c8b30001406000a1
:104340000004e000080032000642a80006c2bf00d8
:10435000644060000004e000fcff3a000080eb00d5
:10436000400798002e0037002e00900010108800a3
:1043700009c2bf000044b2000004e000fcff3a00a4
:1043800009c2bf0001c8b300014060000004e000a2
:10439000080032000642a80006c2bf006440600068
:1043a0000004e000fcff3a000080eb0040079800aa
:1043b0001b0037001e4078000080fb0010108800b2
:1043c00009c2bf000044b2000004e000fcff3a0054
:1043d00009c2bf0001c8b300014060000004e00052
:1043e000080032000642a80006c2bf006440600018
:1043f0000004e000fcff3a000080eb00400798005a
:10440000070037000642a80006c2bf0064406000f3
:104410000004e000fcff3a00100020004007980074
:104420004e0090000080fa0000000600809fbe0051
:10443000821f78000000fa008b80a900307880008d
:10444000f0009000307880004000900000004000b4
:1044500080804000801480008008780030788000e0
:1044600080089000307880004000900000004000fc
:104470000080400010007800c0148800317880006f
:10448000410090000000e800c000980030788000f3
:10449000c00090003078800050009000808f500065
:1044a0002f003a00317880003078800010089000aa
:1044b0000020a2009008980030788000100890003a
:1044c0004200de00610060000004e00009003200ec
:1044d000317880003078800010009000f000980063
:1044e000317880003078800030009000800898009b
:1044f00008003700317880003078800010007800a4
:10450000f000980031788000307880002000900022
:1045100080089800317880000000eb00c00098000f
:10452000317880003078800060009000d0009800e2
:10453000327880003078800090089000e0ff2f00f3
:104540000080600010099800327880003078800088
:1045500090089000d0ff2f000080600010099800a4
:104560000080fa004f0178004f00be0000400600b6
:104570000600fa002007980010002000100798009d
:104580000e81e8008000eb002e0090004cff070039
:10459000000f78000080eb009e0f100001003a0031
:1045a000ffff3700f0062000100798000e81e8009a
:1045b000110020002e00900041ff07000080eb005a
:1045c0009e0f100001003a00ffff3700500120004d
:1045d000100798000e81e800210020002e009000b6
:1045e00037ff07000080eb009e0f100001003a002b
:1045f000ffff370090082000100798000e81e800a8
:10460000310020002e0090002dff07000080eb00fd
:104610009e0f100001003a00ffff370080012000cc
:10462000100798000e81e800410020002e00900045
:1046300023ff07000080eb009e0f100001003a00ee
:10464000ffff3700901a2000100798000e81e80045
:10465000610020002e00900019ff07000080eb0091
:104660009e0f100001003a00ffff3700a00020005d
:10467000100798000e81e800710020002e009000c5
:104680000fff07000080eb009e0f100001003a00b2
:10469000ffff370040002000100798000e81e8005f
:1046a000810020002e00900005ff07000080eb0035
:1046b0009e0f100001003a00ffff3700801020001d
:1046c000100798000e81e800e10020002e00900005
:1046d000fbfe07000080eb009e0f100001003a0077
:1046e000ffff370000042000100798000e81e8004b
:1046f000b10120002e009000f1fe07000080eb00c9
:104700009e0f100001003a00ffff3700500020000c
:10471000100798000e81e800c10120002e009000d3
:10472000e7fe07000080eb009e0f100001003a003a
:10473000ffff3700f0032000100798000e81e8000b
:10474000d10120002e009000ddfe07000080eb006c
:104750009e0f100001003a00ffff3700d007200035
:10476000100798000e81e800e10120002e00900063
:10477000d3fe07000080eb009e0f100001003a00fe
:10478000ffff370000102000100798000e81e8009e
:10479000e10120002e009000c9fe07000080eb0020
:1047a0009e0f100001003a00ffff3700800120003b
:1047b000100798000e81e800410220002e009000b2
:1047c000bffe07000080eb009e0f100001003a00c2
:1047d000ffff3700c0002000100798000e81e8009e
:1047e000510220002e009000b5fe07000080eb0073
:1047f0009e0f100001003a00ffff37003009200033
:10480000100798000e81e800610220002e00900041
:10481000abfe07000080eb009e0f100001003a0085
:10482000ffff3700900e2000100798000e81e8006f
:10483000710220002e009000a1fe07000080eb0016
:104840009e0f100001003a00ffff370040002000db
:10485000100798000e81e800c10220002e00900091
:1048600097fe07000080eb009e0f100001003a0049
:10487000ffff37000000eb00100798000e81e800f2
:10488000f10220002e0090008dfe07000080eb005a
:104890009e0f100001003a00ffff370010002000bb
:1048a000100798000e81e800810320002e00900080
:1048b00083fe07000080eb009e0f100001003a000d
:1048c000ffff37000080fa00000006000600fa0033
:1048d0002007980010002000100798000e81e800c3
:1048e0008000eb002e00900075fe0700000f78009e
:1048f0000080eb009e0f100001003a00ffff370020
:10490000f0062000100798000e81e800110020003a
:104910002e0090006afe07000080eb009e0f100042
:1049200001003a00ffff37005001200010079800f7
:104930000e81e800210020002e00900060fe07009c
:104940000080eb009e0f100001003a00ffff3700cf
:1049500090082000100798000e81e8003100200028
:104960002e00900056fe07000080eb009e0f100006
:1049700001003a00ffff3700800120001007980077
:104980000e81e800410020002e0090004cfe070040
:104990000080eb009e0f100001003a00ffff37007f
:1049a00090162000100798000e81e800610020009a
:1049b0002e00900042fe07000080eb009e0f1000ca
:1049c00001003a00ffff3700600020001007980048
:1049d0000e81e800710020002e00900038fe0700d4
:1049e0000080eb009e0f100001003a00ffff37002f
:1049f00040002000100798000e81e8008100200090
:104a00002e0090002efe07000080eb009e0f10008d
:104a100001003a00ffff37008001200010079800d6
:104a20000e81e800410220002e00900024fe0700c5
:104a30000080eb009e0f100001003a00ffff3700de
:104a4000c0002000100798000e81e80051022000ed
:104a50002e0090001afe07000080eb009e0f100051
:104a600001003a00ffff37003009200010079800ce
:104a70000e81e800610220002e00900010fe070069
:104a80000080eb009e0f100001003a00ffff37008e
:104a9000900e2000100798000e81e800710220009f
:104aa0002e00900006fe07000080eb009e0f100015
:104ab00001003a00ffff3700400020001007980077
:104ac0000e81e800c10220002e009000fcfd0700ce
:104ad0000080eb009e0f100001003a00ffff37003e
:104ae0000000eb00100798000e81e800f1022000a2
:104af0002e009000f2fd07000080eb009e0f1000da
:104b000001003a00ffff3700100020001007980056
:104b10000e81e800810320002e009000e8fd0700d0
:104b20000080eb009e0f100001003a00ffff3700ed
:104b30000080fa00000006007078880001009800ec
:104b40000001eb001200980022009800320098004b
:104b5000023220008201b3002200b300121288004a
:104b600045e2a90041a2a9008540a9009540a800fe
:104b700041e2a8002c43a800c642a900ca42a800ee
:104b80001e21ef001421ef0002202000d20888002f
:104b90008760a9009760a800707880000000060078
:104ba000100390000630a600020037000000eb0062
:104bb000000006000400e00002003c000000eb00e2
:104bc000000006000510200005a0e60004102000eb
:104bd0008002eb00350098002400980080029000cd
:104be0008003eb00e1f27b008703e8000402e900a8
:104bf0000400e000fbff3c000630a00084ff2f0013
:104c000004036300160098004200980053009800c7
:104c1000ca42a900640020004412880007007800fe
:104c200000000600100390000630a60002003700c6
:104c30000000eb00000006000400e00002003c0061
:104c40000000eb00000006009540a900451280001e
:104c5000ca42a90035002000451288004002ae007b
:104c6000feff370045128000431288004002ae006c
:104c7000feff3700451280000280fd0042128800ce
:104c80004002ae00feff3700451280000280fd00aa
:104c9000421288004002ae00feff3700451280003d
:104ca0000003eb008002eb00451288004002ae00da
:104cb000feff37004712800087707b000603e80084
:104cc00004b0e700f8ff3700ca42a8008540a900f9
:104cd0009540a80004007800000006001003900032
:104ce0000630a600020037000000eb0000000600be
:104cf000230020000198e7001f0037009540a9001d
:104d00004412800003092000ca42a900431288000f
:104d10004002ae00feff3700441280008001eb002d
:104d200035002000431288004002ae00feff37002d
:104d3000441280008502e9000500e000f9ff3c0014
:104d400045002000431288004002ae00feff3700fd
:104d500044128000045978008502e9000500e00053
:104d6000f8ff3c00ca42a8008540a9009540a80071
:104d70001000200000000600130020000198e7004a
:104d8000240037009540a9004412800063002000f1
:104d9000ca42a900431288004002ae00feff37005d
:104da000ca42a80044128000030620000000000050
:104db00000000000ca42a900431288004002ae0071
:104dc000feff3700ca42a80044128000ca42a90070
:104dd00053002000431288004002ae00feff37005f
:104de000441280008001eb00431288004002ae00b4
:104df000feff3700441280000400a700faff3700ce
:104e0000ca42a8008540a9009540a80010002000d3
:104e100000000600330020000198e700130037006f
:104e20009540a900ca42a900441280005300200006
:104e3000431288004002ae00feff3700441280009b
:104e40008001eb00431288004002ae00feff3700f5
:104e50004412800004497800ca42a8008540a90095
:104e60009540a8001000200000000600430020002c
:104e70000198e7000d0037009540a900441280001a
:104e800063002000ca42a900431288004002ae001d
:104e9000feff3700ca42a800441280008540a900e6
:104ea0009540a800100020000000060053002000dc
:104eb0000198e700190037009540a90044128000ce
:104ec00003052000ca42a900431288004002ae0038
:104ed000feff3700ca42a8004412800013002000e1
:104ee000ca42a900431288004002ae00feff37000c
:104ef0004412800092017800431288004002ae0004
:104f0000feff3700ca42a800441280008540a90075
:104f10009540a8001000200000000600930020002b
:104f20000198e700370037009540a900441280003f
:104f3000ca42a90063002000431288004002ae006c
:104f4000feff3700ca42a80044128000830d2000f3
:104f50000000000000000000ca42a90043128800bf
:104f60004002ae00feff3700441280009201900024
:104f7000431288004002ae00feff3700441280005a
:104f8000920178000380fd00431288004002ae00c9
:104f9000feff3700441280000380fd0043128800aa
:104fa0004002ae00feff370044128000ca42a80053
:104fb000000000000000000000000000530020007e
:104fc000ca42a900431288004002ae00feff37002b
:104fd000441280008001eb00431288004002ae00c2
:104fe000feff3700441280000400a700faff3700dc
:104ff000ca42a8008540a9009540a80010002000e2
:10500000000006000000eb0000000600801f780092
:10501000811f7800821f7800831f7800841f78002a
:105020008540a900441280007078800090009000b4
:10503000678160000200e00007003c00ca42a8004f
:105040008100e8001100980023002000ca42a90056
:1050500043128800240037006110e10005003c0085
:105060008100e80011009800d001900043128800f0
:105070001d0037006210e10006003c008100e800de
:1050800011009800c00190000380fd0043128800c9
:10509000150037006310e10005003c008100e800c6
:1050a00011009800c0019000431288000e003700e4
:1050b0006410e1000a003c008100e8001100980043
:1050c0008001900030029000e3417a0020029000bd
:1050d0000402e9002400980043128800020037000f
:1050e000ca42a8001fe1a8004f027800cf01780053
:1050f0004f017800cf0078004f00780000000600d4
:10510000801f7800811f7800821f7800831f78003d
:105110008760a9001fe1a9001421ef0070788000ca
:10512000a00090000100e00014003400b0009000e6
:105130008100e80031009800d0019000400190000b
:1051400061014100e0814900810020000198e600f2
:105150008001eb00530098004200980090009000fe
:1051600082ff2f008100610011009800ca42a9004f
:105170006300200043128800030037009000900075
:105180000130a10011009800cf0178004f01780094
:10519000cf0078004f007800004006000a00fa00b7
:1051a000400798000000eb0030079800a033200073
:1051b00010128800c642a9002c43a800ca42a800c9
:1051c00041e2a800ca42a90000092000401288005c
:1051d00040c2bf00614060000004e000fcff3200fc
:1051e00040128000000f78000000eb0040128800a1
:1051f00040c2bf00614060000004e000fcff3200dc
:1052000040128000000f78000000eb004012880080
:1052100040c2bf00614060000004e000fcff3200bb
:1052200040128000000f78000000eb004012880060
:1052300040c2bf00614060000004e000fcff32009b
:1052400040128000000f78000000eb004012880040
:1052500040c2bf00614060000004e000fcff32007b
:1052600040128000100798000000eb0040128800f8
:1052700040c2bf00614060000004e000fcff32005b
:105280004012800020079800ca42a8008540a9006b
:105290009e009000f00b2000808f50000b003a0021
:1052a00010002000f0778800ce00900000ef200072
:1052b00021fe0700e0778800e07780006601470064
:1052c0005100200085fe0700070037000000eb00ba
:1052d000f077880040788000ce009000b50007008d
:1052e00040788000d60007000080fa000000060029
:1052f0000000fa00f0778000e10f500007003a004c
:10530000e07780000001eb001100200073fe070031
:105310000000e000faff32000c0037004078800007
:105320000001eb00410020004502070040788000aa
:105330000001eb00110020004102070040788000ce
:10534000060207000000e000fcff3a000080fa00bf
:10535000000006000400fa00008fbe00f077800015
:10536000e10f500005003a00e07780000e01780060
:105370009100200059fe07000c00370040788000a3
:105380000001eb00410020002d0207004078800062
:105390000e0178007100200029020700407880008b
:1053a000ee0107000000e000fcff3a000080fa0078
:1053b000000006000a00fa00100798002107980074
:1053c00032079800430798000000eb00000f7800b8
:1053d000f0778000e10f50002d003a0010003700f8
:1053e0004e0090001e0250001e00780080007800e1
:1053f0003e009000808240001e0078006101b900ec
:105400001e009000ae009000020140008381480021
:10541000e077800085007800e1fd07001e0f400066
:105420004e0090009e0f1000edff35001b0037006e
:1054300040788000c90107000000e000fcff3a004e
:10544000407880000001eb0041002000fc010700d3
:105450004e0090001e0250001e0078008000780070
:105460003e009000808240001e0078006101b9007b
:105470001e009000ae0090000201400083814800b1
:105480004078800085007800800007001e0f4000f3
:105490004e0090009e0f1000e5ff35004e0090007a
:1054a0000080fa00000006000a00fa0010079800c9
:1054b0002107980032079800430798000000eb008e
:1054c000000f7800f0778000e10f500015003a00df
:1054d000100037004e0090001e0250001e007800a1
:1054e000800078003e009000808240001e0078001e
:1054f0006101b9001e009000ae0090000201400062
:1055000083814800e077800085007800c5fd0700b2
:105510001e0f40004e0090009e0f1000edff350062
:105520000e003700407880008c0107000000e0008a
:10553000fcff3a00407880004e029000be009000d0
:105540001e019000ae019000e4000700407880004a
:10555000820107000000e000fcff3a004e009000ce
:105560000080fa00000006003600f800809fbe00b0
:10557000829fbe00849fbe00869fbe000000fa008e
:10558000f0778000e10f500002003a009ffe070014
:1055900001003700b20207000080fa004f03be008e
:1055a0004f02be004f01be004f00be003600f900a2
:1055b000004006000400fa00000f78001107980070
:1055c0001e00780050788800517880001e009000fe
:1055d000800878004382a9004362a9004342a900e1
:1055e0004322a8004302a80042c2a90042a2a80088
:1055f00042e2a900212420009140780030ceb3007f
:1056000000c060008041b30042e2b70021242000c6
:1056100091407800c0cfb30000c060000014a0002b
:1056200042e2b70045e2a9002c43a800c642a90007
:10563000ca42a80041a2a9000080fa0000000600aa
:105640000200fa00000f78009540a80041e2a8008f
:105650009e0078000000eb00a00098009e007800fb
:105660000000eb00900098009e0078000000eb0026
:10567000c00098009e00780000102000b000980044
:10568000ca42a8000080fa00000006001600fa00d6
:1056900020079800320798004307980051079800a8
:1056a000640798002e00900010007800000f78002a
:1056b0009e00780020c0b300804878001e03e800f8
:1056c0003e009000ce00900002002000f30f20006a
:1056d00000027800810278000200780083007800e0
:1056e00000016200018062006102b8007407980046
:1056f000050f98007e0090008e089000c000dd002d
:105700000000200070079800010f98007e009000b4
:105710008e0890006112b80074079800050f980079
:105720007e0190008e09900002007000838070005e
:105730004088de00cf80de00004b78001e83e8004a
:105740003e009000ce00900002f02f0003002000e9
:10575000000278008102780002007800830078005f
:1057600000016200018062006102b800140f98001d
:10577000250f98001e089000ae089000c000dd00c4
:1057800000002000100f9800210f98001e089000c4
:10579000ae0890006112b800140f9800250f980011
:1057a0001e099000ae099000020070008380700016
:1057b000c809dd004800de0000807100c888de00f6
:1057c000004b78001e027800630142003e0090000a
:1057d0008040780000c0eb0000c060000049780005
:1057e000ee00900000102000808f50000200340076
:1057f00000102000600798009e027800638042003d
:10580000104078000004e000100032009e00780094
:1058100063804000104078008080fb000010200072
:10582000810050006e009000808f500007003d0006
:105830001e01780063004100104078008080fb006a
:105840000010200001005000600798000000eb00ed
:10585000100798000b0037001e0090001e0040004b
:10586000640140009e0090005e00900000804000b7
:1058700010407800004978001e0090000000e80009
:1058800010079800ee0090001e009000808f5000de
:10589000f1ff3e002e009000200090008000780074
:1058a0000120a0002e009000210098006e009000c2
:1058b000e40040002e00900031009800ca42a90088
:1058c0001e007800104078000080fb004012880025
:1058d0006e0090000080fa00000006001600fa003a
:1058e0002007980032079800430798005107980056
:1058f000640798003e009000ce0090000200200057
:10590000f30f200000027800810278000200780086
:105910008300780000016200018062006102b8002b
:1059200074079800050f98007e0090008e08900084
:10593000c000dd000000200070079800010f9800f3
:105940007e0090008e0890006112b80074079800e5
:10595000050f98007e0190008e09900002007000f3
:10596000838070004088de00cf80de0020479800f2
:105970003e009000ce00900002f02f0003002000b7
:10598000000278008102780002007800830078002d
:1059900000016200018062006102b800140f9800eb
:1059a000250f98001e089000ae089000c000dd0092
:1059b00000002000100f9800210f98001e08900092
:1059c000ae0890006112b800140f9800250f9800df
:1059d0001e099000ae0990000200700083807000e4
:1059e000c809dd004800de0000807100c888de00c4
:1059f000104798003e0090008040780000c0eb0007
:105a000000cf6000ee00900000102000808f50005a
:105a100004003400ae00900000102000b000980098
:105a2000030037002e0090006e02900034009800b2
:105a3000de0090002e00900051009800ae00900013
:105a40000000eb00c0009800ca42a900300020000e
:105a5000401288002e009000200090000000a2005c
:105a6000610060000004e000faff3a002e009000a0
:105a7000a0009000e0ff2f00808060002e009000ca
:105a8000210098002e4090000000fb00401288008a
:105a90002e009000200090000000a2006100600035
:105aa0000004e000faff3a002e009000a0009000f1
:105ab000e0ff2f00808060002e0090002100980001
:105ac0001e4090000000fb00401288002e00900055
:105ad000200090000000a200610060000004e000cf
:105ae000faff3a002e009000a0009000e0ff2f0087
:105af000808060002e009000210098001e00fb00b6
:105b0000401288002e009000200090000000a200ab
:105b1000610060000004e000faff3a002e009000ef
:105b2000a0009000e0ff2f00808060002e00900019
:105b3000210098000000eb00401288002e00900029
:105b400020009000800078000110a0002e0090003e
:105b5000210098000080fa00000006000400fa000e
:105b6000000f78001e007800200090004200de0048
:105b7000610060000004e00003003200100020001b
:105b8000100798002b0037001e00780020009000be
:105b90000000d100610060000004e000030032005a
:105ba000100020001007980022003700ca42a90008
:105bb00050002000401288001e0078002000900055
:105bc0000000a200610060000004e000faff3a005b
:105bd0001e007800a0009000e0ff2f008080600091
:105be0001e007800210098000000eb0040128800a1
:105bf0001e007800200090000000a20061006000fc
:105c00000004e000faff3a001e007800a0009000b7
:105c1000e0ff2f00808060001e00780021009800c7
:105c2000ca42a8001e0078001000900061006000c9
:105c3000100798001e0090000080fa000000060087
:105c40000e00fa004007980051079800620798007c
:105c50005e009000e10f500011003a00ca42a90016
:105c600020062000401288004e0090002000900086
:105c70000000a200610060000004e000faff3a00aa
:105c80004e009000a0009000e0ff2f008080600098
:105c90004e00900021009800ca42a800ee00370094
:105ca0005e009000e20f500031003a006e0090005c
:105cb00020079800ca42a900500120004012880025
:105cc0004e009000200090000000a20061006000e3
:105cd0000004e000faff3a004e009000a00090009f
:105ce000e0ff2f00808060004e00900021009800af
:105cf0000000eb0030079800180037000000eb00b0
:105d0000401288004e009000200090000000a20089
:105d1000610060000004e000faff3a004e009000cd
:105d2000a0009000e0ff2f00808060004e009000f7
:105d3000210098003e009000800078002e00900026
:105d4000808040004e009000100090008048780055
:105d50003e0090000000e800300798003e009000f0
:105d6000e30f5000e5ff3400ca42a800ba00370034
:105d70005e009000e30f500026003a006e00900095
:105d800010079800ca42a900500020004012880065
:105d90004e009000200090000000a2006100600012
:105da0000004e000faff3a004e009000a0009000ce
:105db000e0ff2f00808060004e00900021009800de
:105dc0000000eb00401288004e0090002000900080
:105dd0000000a200610060000004e000faff3a0049
:105de0004e009000a0009000e0ff2f008080600037
:105df0004e009000210098004e009000100090008e
:105e0000804078001e00900001487800ca42a80037
:105e1000910037005e009000e40f500011003a003e
:105e2000ca42a90060002000401288004e00900085
:105e3000200090000000a200610060000004e0006b
:105e4000faff3a004e009000a0009000e0ff2f0003
:105e5000808060004e00900021009800ca42a80097
:105e60007d0037005e009000e60f500011003a0000
:105e7000ca42a90040002000401288004e00900055
:105e8000200090000000a200610060000004e0001b
:105e9000faff3a004e009000a0009000e0ff2f00b3
:105ea000808060004e00900021009800ca42a80047
:105eb000690037005e009000e70f500043003a0091
:105ec0006e009000000f7800ca42a9002005200053
